:020000040800F2
:10000000580900204901000871180008AD0A0008CD
:1000100000000000000000000000000000000000E0
:10002000000000000000000000000000F9190008B6
:10003000000000000000000035190008FD1900084C
:100040005B0100085B0100085B0100085B01000820
:100050005B0100085B0100085B010008D50900088E
:10006000000000005B0100085B01000800000000C8
:100070003D070008891B00085B0100080000000024
:100080005B0100085B010008000000005B01000844
:10009000000000005B0100085B0100085B01000834
:1000A000000000005B010008000000005B01000888
:1000B000F11D00080000000000000000000000002A
:1000C0000448854600F0F0FA004800470907000898
:1000D000C046C04658090020F0B502460B46002035
:1000E00014461D46174E766901273E43154F7E6123
:1000F00000BFEFF31086314672B60EE02E68266020
:100100002D1D241D461CF0B21F2806D10D4E766908
:100110000127FF043E430B4F7E612028EED300BF32
:10012000084E366901273F043E40002EF8D1054EA7
:10013000766976087600034F7E6100BF81F31088F0
:1001400000BFF0BD0020024004488047044800473B
:10015000FEE7FEE7FEE7FEE7FEE7FEE7351B0008E9
:10016000C100000830B50B460146002020220124C2
:1001700009E00D46D5409D4205D31D469540491BDB
:100180002546954040191546521E002DF1DC30BD24
:1001900003460B439B0703D009E008C9121F08C0A0
:1001A000042AFAD203E00B780370401C491C521E4B
:1001B000F9D27047D2B201E00270401C491EFBD256
:1001C00070470022F6E710B513460A460446194662
:1001D000FFF7F0FF204610BDF0B50746084658402F
:1001E00087B0C00F049048000E46590040084908E7
:1001F000BC1A884105D2384631461E4617460B4682
:1002000002465800400810434DD0300D0390400581
:100210005900400D490D0590401A0290402873DAAC
:1002200018030121000B090508430190049800926E
:10023000002806D01146019A4942002090410091C1
:100240000190029840210A1A0199009800F098F94B
:1002500005460C466B4607CB00F0B3F9C019714157
:10026000039A0E0D0023D71756401A467A401643BC
:1002700044D0049A002A2DD0029A012A039A15DC50
:100280001205C01A914101263605001C7141D20F9A
:10029000059ED2070093019202962A46234600F05B
:1002A000B0F907B0F0BD38463146FAE71605234AE3
:1002B0000F46B218C01AB74101210905001C4F4171
:1002C00000187F41114618187941E20F10436D194B
:1002D000644113E0E2076D0815436408C207144344
:1002E000039A01261205C01A91413605001C71417E
:1002F000CE07400830434908C01851412A462346DA
:1003000000F072F9CDE7FFE7049801224000C11721
:10031000121A00238B4104983146C417381AA141A0
:10032000EEE730B40124E407634030BC54E730B456
:100330000124E407614030BC4EE700000000E0FF0C
:10034000F0B51FB488B00B9909980024484009996A
:10035000C00F490049080991C0070B990090490056
:1003600049080B9109990898A64608431CD00B9997
:100370000A98084318D0099801244000420D48000B
:10038000410D099824050003000B204309900B98A8
:100390000003000B20430B9050181C49401800220A
:1003A00001901446104605E0002001460DB0F0BD56
:1003B000032801DA034600E003239C46C11A0AAE73
:1003C0000AE05F0008ADED5B4F00F75B7D4300275F
:1003D000AA187C41491C5B1E6145F2DD410004AB5B
:1003E0005A522104120C0A43240C401C0828DFDB5B
:1003F000019802900099704601910090059B049A23
:100400000799069800F0FDF8D0E700000DFCFFFF0B
:10041000F0B50C465C4085B0E40FE40703944C0053
:100420000026640859009446490802460296224371
:1004300021D062460A431ED06200570D4A000E03C7
:100440002303550D012402462C492405781B1B0B60
:10045000360B401823432643614600901C46501A31
:10046000B44103D30098401C009002E09218009819
:100470005B41002803DA0020014605B0F0BD0020F2
:10048000012109050746864611E064461D46141BF6
:10049000B54106D36546521BB341744607430C432E
:1004A000A646CD0740084908284392185B410546F7
:1004B0000D43EAD11046184313D060461946504008
:1004C0007140084306D06046101AB34106D201229B
:1004D000002306E000220123DB0702E00122D243D1
:1004E0005310009874460105381C6141029C039D1D
:1004F0000019694100F078F8BFE70000FD03000033
:100500000EB5C217C10F5040CA0740180021054B55
:100510000293019200910A460B4600F072F803B074
:1005200000BD0000330400000EB505490291002112
:1005300000910A460B46019100F063F803B000BD3C
:10054000330400004A0009030123090B1B0519436A
:10055000094B10B5520D9A4201DA002010BD064B2E
:1005600034339A4203DC9A1A00F01AF810BD03499A
:100570005118884010BD0000FF030000CDFBFFFFB5
:1005800010B5202A04DB0146203A9140002010BD1E
:10059000914020239C1A0346E3401943904010BD2C
:1005A00010B5202A04DB0846203AD040002110BDB7
:1005B0000B46D340D0402024A21A9140084319464C
:1005C00010BD10B5202A06DBCB170846203A104193
:1005D000C1170B4306E00B461341D0402024A21A5A
:1005E00091400843194610BD10B5002B08DA0024CD
:1005F000401C614192185B411A4301D14008400000
:1006000010BDF0B51FB482B005460C0003D00846FB
:1006100001F044FC02E001F041FC20300246009071
:1006200021462846FFF7ACFF049B059A04460F4677
:1006300018431143084314D0184610431BD00098A8
:1006400040210A1A18460599FFF7AAFF05460E46EB
:10065000009A05990498FFF793FF084305D00120FD
:1006600004E02046394607B0F0BD0020C11705431D
:100670000E432C43374300990E986305401A7905C1
:10068000E40A00220C43FD0A0A3002D5002001468C
:10069000E9E70105101969410C9C0D9D001969419C
:1006A000FFF7A2FFDFE70000064C0125064E05E03C
:1006B000E36807CC2B430C3C98471034B442F7D383
:1006C000FFF702FDD82B0008F82B000830B58C1876
:1006D0000278401C13071B0F01D10378401C12093C
:1006E00006D10278401C03E005780D70401C491CBF
:1006F0005B1EF9D101E00B70491C521EFBD1A142D7
:10070000E6D3002030BD000070B50125ED060024C1
:1007100006E0A0002858A100064A5050601CC4B250
:10072000302CF6DB012040070349886001F062FDB0
:10073000002070BD0000002000ED00E010B500BFFB
:1007400007480068042108408008002806D000BF40
:1007500004200349086000BF00F0DCF810BD000071
:100760000024014010B500BF012000054849096B75
:100770000143474A116300BF00BF1146096B814323
:10078000116300BF00BF012000F008FB032201211C
:100790000520000700F0F5FA0120000500F0D6F969
:1007A0003C4800F0C5F900280AD100BF3A49096861
:1007B0000322920591430143374A116000BF00BFF5
:1007C0000120000733490969090109090143314A38
:1007D000116100BF0021104600F0B2F900212D4840
:1007E00000F0AEF900202B49C96801229203914321
:1007F0000143284AD16000BF052011464969C90854
:10080000C9000143516100BF00201146C968372269
:100810009201914301431F4AD16000BF00BF1146BE
:10082000C9685214914301431A4AD16000BF00BF06
:100830001146C968890889000143D16000BF90143E
:100840001146C968024691430143124AD16000BF74
:1008500000201146C96801221204914301430D4A48
:10086000D16000BF01200D490140916200BF00BF6F
:1008700010464068042108431146486000BF00212B
:100880000C2001F001F80C2000F0F4FF10BD000076
:10089000001002400024014008270140FF1B000017
:1008A00008B500200090194800F042F9002823D133
:1008B00000BF164880681649084089074018134948
:1008C000886000BF00BF00BF10488068C00F0028CC
:1008D000F9D12020009002E00098401E009000987E
:1008E0000028F9D100BF0948806809490840401C28
:1008F0000649886000BF00BF00BF04488068044903
:100900000840001D0149886000BF08BD0024014067
:10091000EAFFFF7FF0B58BB000BF2948006C80B2C2
:10092000074600240BE060002649085AB84204DA62
:1009300020461E382449088003E0601CC4B2652CA0
:10094000F1D300BF204800880A2148431E4908808F
:10095000002C2FDD61001B4A525A611E4900194BC1
:10096000595A501AFFF7CCFD05460E466100154A4C
:10097000515A781AFFF7C4FD2A4633460191009078
:10098000FFF746FD0022114B03910290FFF7D8FCC0
:10099000079106900C480088FFF7C6FD059104906A
:1009A000079B069AFFF718FC09910890FFF7CAFD0C
:1009B0000549088004480088054948800BB0F0BD0F
:1009C00000240140D028000822010020000024401B
:1009D0002405002010203249C86000BF314800685B
:1009E0007D21C90088420BD32F484079002807D1C8
:1009F00001202D494871002008712A4908604DE006
:100A000029484079012812D12648006840280AD296
:100A100024480068302806D9022023494871002064
:100A2000204908603AE000201F49487136E01E481E
:100A30004079022832D11C48006840001A490860F9
:100A4000184800680F280AD216480068082806D9F6
:100A50000846006801210843134908600FE0114867
:100A600000681A2808D20F480068132804D90E48D5
:100A700000680D49086002E000200B4948710A48EF
:100A80000079401C084908710020064908600648A2
:100A90000079202802D103200349487170470000E3
:100AA000001802401C0100209802002000BFFEE751
:100AB00000BF1948006A012108431749086200BFB6
:100AC00000BF00BF1448006A022108404008002807
:100AD000F7D000BF11481249086000BF00BF11489D
:100AE000086000BF0320486000BF0F48886000BF57
:100AF00000BF00BF0A48C0688007800F002801D1EE
:100B0000012000E000200028F3D000BF074804497E
:100B1000086000BF7047000040100240CCCC0000CD
:100B20000030004055550000B80B0000AAAA000094
:100B300001468868C007C00F0122504050407047EE
:100B4000C26818239A430A43C260704708B5054932
:100B500009680143034A1160114609680140009188
:100B600000BF08BD40100240024949688143014A64
:100B70005160704780180240024909688143014A68
:100B80001160704780180240024949680143014AD8
:100B90005160704780180240024949680143014A88
:100BA0005160704700180240024909680143014A38
:100BB0001160704780180240024909680143014AE8
:100BC000116070470018024070B504460025207976
:100BD00000284ED02068002851D06079002804D029
:100BE000012809D0022815D10DE02068FFF7BCFFCD
:100BF0002068FFF7D9FF0FE02068FFF7BDFF2068EE
:100C0000FFF7C2FF08E02068FFF7CEFF2068FFF77C
:100C1000BBFF01E0012500BF00BFA07900282ED056
:100C2000A079012804D002280DD003281DD115E099
:100C30002068144949688143124A516000BF206806
:100C4000FFF7BAFF14E020680E49096881430D4A96
:100C5000116000BF2068FFF79FFF09E02068FFF7E1
:100C6000ABFF2068FFF798FF02E00220054300BFBA
:100C700005E02068FFF780FF2068FFF775FF284632
:100C800070BD000000180240F0B502460B46002679
:100C900061E00124B4401968214000295AD0586805
:100CA00014680D464D436F00ED19AC430D464D439E
:100CB00045432C43146000BF5868012802D058688F
:100CC00002280DD1986894680D464D436F00ED19C8
:100CD000AC430D464D4345432C43946000BF00BFD9
:100CE0001869D4680D464D436F00ED19AC430D46AD
:100CF0004D4345432C43D46000BF5868022829D196
:100D0000FF2911D85869146A0D464D434D434D4390
:100D10002F017D1BAC430D464D434D434D43454391
:100D20002C43146200BF15E05F69080A40430C0AB7
:100D300060430C0A60430401241A506AA0430C0A61
:100D400064430D0A6C430D0A6C437C43204350629C
:100D500000BF00BF761C1868F040002899D1586881
:100D6000012802D05868022809D1DC681868556843
:100D70008543074667433D43556000BF00BF0120E0
:100D8000F0BD30B503680C464C4365006419A343BD
:100D90000C464C4354432343036030BD08B505491A
:100DA000496B0143034A51631146496B014000916D
:100DB00000BF08BD0010024070B504467D25ED005F
:100DC00029462046FFF7CEF9401E0449486100201D
:100DD00088610520086100BF70BD000000E000E0F0
:100DE0000248806838210840704700000010024027
:100DF00010B5044600F0CAFD2060206800F09CFD9C
:100E00006060606800F0AEFDA06010BD0149086040
:100E100070470000C000002010B5024613681F484C
:100E2000824202D01E48824205D118467024A04357
:100E30004C6820430346194882420BD0184882422E
:100E400008D01848824205D01748824202D017487D
:100E5000824206D1184603242402A043CC682043D2
:100E6000034613608868D06200BF0888906200BFA4
:100E70000A48824205D00C48824202D00B48824286
:100E800003D1087C106300BF00BF00BF506901247C
:100E90002043506100BF012010BD0000002C014024
:100EA0000004004000200040004401400048014090
:100EB000FEB505460C4600270026284600F038F807
:100EC000002831D1E1686068084321690843E96876
:100ED000164A11400843E86068690121C902884345
:100EE000A16908436861A0682969012252039143FE
:100EF0000143296100BF60696969032212029143BD
:100F00000143696100BF6846FFF772FF029E002E31
:100F10000AD02068002807D00127314628462368D8
:100F2000A26900F00CF800BF3846FEBDF3E9FFFFF0
:100F30000146C868012252031040400B7047FFB5BC
:100F400083B00C461D460121C9020598884247D14D
:100F50006900192262431046FFF704F9064664212E
:100F6000FFF700F907016900192262431046FFF7F5
:100F7000F9F806466900192262431046FFF7F2F8B5
:100F800064210190FFF7EEF864214843301AC00055
:100F900032300290FFF7E6F8F821084040003F1891
:100FA0006900192262431046FFF7DCF80646690023
:100FB000192262431046FFF7D5F864210190FFF72C
:100FC000D1F864214843301AC00032300290FFF754
:100FD000C9F84007400F381881B20398816045E096
:100FE000A900192262431046FFF7BCF806466421A7
:100FF000FFF7B8F80701A900192262431046FFF76E
:10100000B1F80646A900192262431046FFF7AAF874
:1010100064210190FFF7A6F864214843301A0001CB
:1010200032300290FFF79EF8F02108403F18A900E7
:10103000192262431046FFF795F80646A9001922C7
:1010400062431046FFF78EF864210190FFF78AF89B
:1010500064214843301A000132300290FFF782F8D1
:101060000007000F381881B20398816007B0F0BD07
:1010700008B501460A4A1269009200BF0846421CA0
:10108000002A00D0401C07E0054A126901231B0416
:101090001A40002A00D0401E0028F5D108BD0000EB
:1010A00000E000E010B514484078062815D006DCB2
:1010B000012809D003280AD0052817D10AE00F28F3
:1010C0000ED0102812D10EE000F034F812E000F03B
:1010D000F3F80FE000F060F90CE000F095F909E09A
:1010E00000F0BCF906E000F00BFA03E0012000F08C
:1010F0007BFB00BF00BF10BD2404002010B50B48CF
:101100000078042810DB09480178403801F096F88F
:10111000002809D10548403800787D2804D1FFF720
:10112000C1FF01200249087010BD000064040020C6
:1011300028010020F0B593B0402102A8FFF741F844
:101140005A480079000259494979401885B2012D61
:1011500001DB1F2D04DD032000F046FB13B0F0BDC2
:101160005248807800025149C978401886B25048E8
:101170008088B04205DC7019401E4D49C9888842FC
:1011800003DD022000F030FBE8E7E81DC117490F3E
:1011900009184903090C1291002404E0002002A957
:1011A0000855601C84B212988442F7DB00242AE0C0
:1011B000311988B200F036FA01900198002802D067
:1011C000012819D100E01BE02046E217520F121847
:1011D000D21002AB9A5C2146E3175B0F5B18DB1061
:1011E000DB00E71A0123BB401A43E3175B0F1B1810
:1011F000DB1002AFFA5403E0042000F0F5FAADE78B
:1012000000BF601C84B2AC42D2DB00212748803092
:10121000817080380178803082788078401CC3B239
:101220002248803083703E38815442384178803083
:1012300082788078401CC3B21C48803083703E386E
:1012400081541298C1B21948803082788078401C4D
:10125000C3B21648803083703E38815400240EE0BB
:1012600002A8015D1148803082788078401CC3B2AA
:101270000E48803083703E388154601C84B21298CE
:101280008442EDDB0948803081783E3800F0DAFA9C
:10129000002006E000218200064BD2185180411C3C
:1012A000C8B21F28F6DB00BF58E700002404002066
:1012B0002C010020A804002070B5354800790002F8
:1012C000334949790843044631488078000230495F
:1012D000C97808430546012C01DB182C03DD0320E7
:1012E00000F082FA70BD2B488088A84205DC2819DE
:1012F000401E2849C988884203DD022000F074FAA4
:10130000F0E70021224880308170803801788030F9
:1013100082788078401CC3B21D48803083703E388C
:10132000815442384178803082788078401CC3B242
:101330001748803083703E3881546006010E14488F
:10134000803082788078401CC3B21148803083702E
:101350003E388154E2B23E3083783E381918284630
:1013600000F07CF90646002E03D1042000F03CFA80
:10137000B8E707488030807861004018C1B204485F
:101380008030817081783E3800F05CFA00BFA9E7B8
:10139000240400203801002070B5194800790002AB
:1013A00017494979401885B2002D07D0FF20000267
:1013B000854203D0032000F017FA70BD10488078F2
:1013C00000020F49C978401884B20E488088A042B4
:1013D00011DC0C48C088A0420DDB2946204600F0F5
:1013E0006FF9012803DD042000F0FEF9E5E7002095
:1013F00000F0FAF902E0022000F0F6F900BFDCE7A5
:10140000240400202C01002070B5124880780002CE
:101410001049C978084304460F488088A04203DC7D
:101420000D48C088A04203DA022000F0DDF970BD4B
:1014300001220849091D204600F098F90546002DB3
:1014400003D1042000F0D0F9F1E7002000F0CCF93E
:1014500000BFECE7240400203801002070B52648C6
:101460000079000224494979401884B2012C01DB3B
:101470001F2C03DD032000F0B7F970BD2046E117F3
:10148000490F091849050E0EE117490F0918C9102F
:10149000C900611A01D0701CC6B217488079B042E9
:1014A00003D0032000F0A0F9E7E71348807800029A
:1014B0001149C978401885B210488088A84205DCD7
:1014C0002819401E0D49C988884203DD022000F01A
:1014D0008BF9D2E7084AD21D2146284600F012F9BE
:1014E000012803DD042000F07FF9C6E7002000F0AA
:1014F0007BF900BFC1E70000240400202C0100207C
:1015000070B51B480079000219494979084304461F
:101510001748807800021649C97808430546012C0F
:1015200001DB182C03DD032000F05EF970BD1148CB
:101530008088A84205DC2819401E0E49C9888842C7
:1015400003DD022000F050F9F0E7E2B20849C91DBE
:10155000284600F00BF90646002E03D1042000F0C7
:1015600043F9E3E7002000F03FF900BFDEE70000A9
:10157000240400203801002001804280704701804F
:101580004280704710B52048204988801E481E3090
:10159000C880002309E099001D4A881800221A49D2
:1015A0005918FFF7E9FF581CC3B21F2BF3DB19488A
:1015B000194988801948C88000230AE0154A9A18FA
:1015C00091B29A00164C10190022FFF7D8FF581C50
:1015D000C3B20A2BF2DB00230DE0104A521E9A1808
:1015E00091B21A460A3292000D4C10190022FFF7F0
:1015F000C6FF581CC3B2022BEFDB7D210848418592
:101600006421C18510BD0000102700002C010020BE
:10161000A804002050C300003801002079E6000033
:101620002405002010B50346002111E088000A4A75
:10163000105A98420AD18800144600194288D00FE7
:10164000801840104000101AC0B210BD481C81B272
:101650001F29EBDBC8B2F8E7A804002070B50546E7
:101660000B461446002124E08800144E305AA8424C
:101670001DD10819401E8000305A2E19761EB04226
:1016800015D100220FE0881880000C4E8019408888
:10169000001218705B1C8818800080198078187000
:1016A0005B1C501CC2B2A242EDDB012070BD481C85
:1016B000C1B20C29D8DB0020F8E700002405002087
:1016C00030B502460B46002115E088000C4C205A2C
:1016D00090420ED1002B05D001208C00084D6419DA
:1016E000608004E000208C00054D641960800120BA
:1016F00030BD481C81B21F29E7DBC8B2F8E7000003
:10170000A8040020F7B50C46002208E09000164B14
:101710001B5A0098834200D103E0501C82B21F2A5A
:10172000F4DB00BF1F2A01DB1046FEBD002117E0DD
:101730000846CD176D0F2D18EE10029DAD5D0B46BE
:10174000CE17760FF618F610F6008E1B3541ED0712
:10175000ED0F5618B600044FF6197580481C81B27B
:10176000A142E5DB0120E0E7A8040020F0B5054632
:101770000B461446002129E08800164E305AA84234
:1017800022D10819401E8000305A2E19761EB04210
:101790001AD1002214E01E785B1C30028E18B600AD
:1017A0000C4FF619708018785B1C8E18B600F6196D
:1017B000768830438E18B600F6197080501CC2B27D
:1017C000A242E8DB0120F0BD481CC1B20C29D3DBEA
:1017D0000020F8E72405002070B504460D46294690
:1017E000204600F001FE70BD10B50446002C0FD05D
:1017F0007D2113488170403840788021084310498A
:10180000891C48700846847003213E3081700FE0C7
:10181000002006E00A4940390A5C42310A54411C62
:10182000C8B20628F6DB0622054940318A7000BF9F
:101830000348403081783E3800F004F810BD0000C5
:101840006404002070B504460D462946204600F089
:10185000F5FC06462846691CCDB2265432122846AD
:10186000691CCDB2225429462046FFF7B5FF70BD52
:1018700070470000C206D20E01219140014A11605A
:101880007047000000E100E010B5002819DA1A4A9C
:1018900003071B0F083B9B089B00D2588307DC0EF5
:1018A000FF23A3409A438B071B0E8407E40EA3403B
:1018B0001A43114B0407240F083CA408A4001A5132
:1018C00018E00E4A03231B02D21883089B00D2584B
:1018D0008307DC0EFF23A3409A438B071B0E84076C
:1018E000E40EA3401A43054B032424021B19840869
:1018F000A4001A5110BD00001CED00E000E100E062
:1019000000BF00BF00BFBFF34F8F00BF00BF00BFCD
:1019100006480749C86000BF00BF00BFBFF34F8F34
:1019200000BF00BF00BF00BF00BFFDE70400FA0515
:1019300000ED00E070470000014600BF07488068E6
:101940000F22120210401040000A8000044A105C6E
:10195000C206D20E0846D040704700000010024078
:10196000A4270008014600BF06488068072212032A
:101970001040000B8000044A105CC206D20E0846DC
:10198000D040704700100240E427000870B5FFF710
:1019900027FA00280FD0082804D0182804D02028BF
:1019A00008D104E0114C1EE00124E40300BF01242F
:1019B000E40300BF00BF00BF0D4800680721C90253
:1019C0000840C10A012088400546094949680722A4
:1019D00052031140490B8900064A50582946FEF728
:1019E000C1FB044600BF00BF204670BD00366E013B
:1019F0000010024004280008704700001D480068DD
:101A0000401C1C4908601C48008840001B49085ABB
:101A100000281DD018490888C10F0918491049002D
:101A2000411A09D1082005210907496941400522C9
:101A30001207516100BF00BF0F48008840000F49E6
:101A4000085A401E0C49098849000C4A505210E0BF
:101A500009480088401C08490880084600880A2870
:101A600001D300200880082005210907886100BFF4
:101A700000BF7047180100202001002084020020D0
:101A800010B500BF27480068FF21013108432549F0
:101A9000086000BF2449098AC804C00C0122D2038F
:101AA000104320494968090C090401431D4A51604B
:101AB00000BF00BF00BF1B48006801218902084029
:101AC000800A0028F6D00020164989680F221202E9
:101AD00091430143134A916000BF00BF11468968DA
:101AE000C908C9000143916000BF00BF00BF0D4895
:101AF0008068382108400028F8D100BF094989686A
:101B00000722120391430143064A916000BF074830
:101B1000FFF752F90548FFF779F9032004490861F6
:101B200010BD000000100240000FFF1F00366E01C4
:101B300000E000E007484068000C00040121490370
:101B4000401805494968084302494860C8030349E9
:101B50008860704700100240000FFF1F00ED00E09A
:101B600000200649088008E0044800F045F80448D1
:101B700000F062F8034800F0A5F8F5E7C400002083
:101B8000CC000020D400002018480069C007C00F16
:101B900000282AD000BF1548C068C007C00F012127
:101BA00048404840002820D000BFC81E0F490861A7
:101BB00000BF0F4800687D21C900884204D20C484C
:101BC0000068401C0A4908600A48407800280CD088
:101BD00008484078401C0749487008464078322839
:101BE00003DD00204870012088707047002C014000
:101BF0001C0100208001002010B504462088002828
:101C000002D0272812D104E00FE000BF2720208057
:101C100000BF08484079032801D0002010BD00BF54
:101C200000200449487100F067FAEEE700202080A8
:101C30000220F3E79802002010B50446208800280F
:101C400002D0432832D126E02FE000F0F3FB194800
:101C5000C078402811DC1848006800280DD11548CC
:101C6000C178164801701348C2780146FD391348FF
:101C70004038FEF78DFAFFF741FA002010498870CE
:101C800000210C48C17000BF00F0F4FA606000BF92
:101C90004320208000BF00F0EDFA6168401A502810
:101CA00001D2002010BD00BF00BFCEE70020208081
:101CB0000220F7E780020020440100206404002095
:101CC0008001002038B504462088002802D07A28F8
:101CD0006DD161E06AE03848007800280ED13748BD
:101CE0000068401C3549086008460068344988424D
:101CF00007D9002031490860FFF702FE00202F4974
:101D000008603048007800281DD02E480078401E1A
:101D10002C49087028480078002805D00020087059
:101D2000012000F0EFF80EE02648007800280AD1E4
:101D3000022000F0E7F824A0006800900321684624
:101D400000F052FB00BF0A2120480068FEF70AFAA3
:101D500000290ED100F0F8FCFEF7A2FD00BF1C48E0
:101D60001C49086000BF1C4802881C491CA000F0E8
:101D700087FA00201049087014480068401C134975
:101D800008607820FFF774F900BF00F073FA606014
:101D900000BF7A20208000BF00F06CFA6168401A12
:101DA000642801D2002038BD00BF00BF93E70020A7
:101DB00020800220F7E7000028010020E400002036
:101DC000B80B0000DC000020FF7DFE00E0000020DA
:101DD000AAAA000000300040220100204A28000882
:101DE00025732C204144433A25640D0A000000006D
:101DF0000A4800682021084000280ED007484068A3
:101E0000C1B20748C278C078401CC3B20448C3704E
:101E1000FD38815401200349487070470044004058
:101E2000800200208001002010B503460C461946B0
:101E3000E21DF93200BF49005200FF20013010407E
:101E4000002800D0491C012000040840002801D0CF
:101E5000044841400120000410400028EBD088B223
:101E600010BD000021100000F8B505460E46002404
:101E7000AF1905E029786D1CA0B2FFF7D5FF044625
:101E8000BD42F7D3A0B20021FFF7CEFF04462046A3
:101E90000021FFF7C9FF04462046F8BD2021020CAF
:101EA00001D010211046020A01D01046083902095B
:101EB00001D01046091F820801D01046891E420831
:101EC00001D0881E7047081A704730B47446641EEB
:101ED0002578641CAB4204D3635D5B00E31830BC1F
:101EE00018471D46F8E702E008C8121F08C1002A7B
:101EF000FAD170477047002001E001C1121F002A8B
:101F0000FBD1704710B50446012C04D0022C0DD033
:101F1000032C24D117E00020124908801421124814
:101F2000FEF74FF9C8201049088019E000200D493C
:101F3000088014210C48FEF744F964200A490880FF
:101F4000488088800CE0002006490880142106485B
:101F5000FEF737F9FF20F5300349088000BF00BFC6
:101F600000BF10BD200100208402002010B50A48E7
:101F700040690121C907084307494861084640698B
:101F8000C00FC007002805D1044905A000F078F96A
:101F9000022010BD0020FCE700200240CD290008EF
:101FA00025732C20666C617368206C6F636B2066F0
:101FB00061696C65640D0A00F8B505460F46144664
:101FC00000F038F8002800D0F8BD3E46164885429B
:101FD00004D228191549884200D9F5E71BE0802171
:101FE0001348FEF7EEF8802C0BD3802231461048C0
:101FF000FEF7CEF80E492846FEF76EF8803C803694
:1020000009E0224631460A48FEF7C2F80849284648
:10201000FEF762F80024002CE1D1FFF7A7FF0028AB
:1020200000D0D1E700BFCFE7008000080000010822
:10203000A403002010B50C484069C00FC007002859
:1020400010D00A48084988600948886008464069F5
:10205000C00FC007002805D0064907A000F010F9FE
:10206000012010BD0020FCE700200240230167454D
:10207000AB89EFCDC029000825732C20666C6173F5
:102080006820756E6C6F636B206661696C65640DAA
:102090000A0000001CB50120FEF780FE002210217E
:1020A00005200007FEF76DFE102001210522120712
:1020B000D268034643435C001B199A4303464343DB
:1020C0004B431A4305231B07DA6000BF0020009032
:1020D000019010200090684601710021417101219A
:1020E0008171FEF771FD00210720FFF7CDFB07206E
:1020F000FFF7C0FB1CBD000010B530480268304936
:1021000030A000F0BDF8002408E02C480068A100D1
:10211000314A5158884200D102E0641C0A2CF4DB99
:1021200000BF21462DA000F0ABF801202E494880C9
:102130000A202E49087000202D4908702300FFF75F
:10214000C4FE0A060B0C0D0E0F171C2126330121AD
:102150002548743041802EE000BF00BF00BF00BFA3
:1021600001212046083080001F4A8018418022E06B
:1021700001211D48603041801DE001211A48643072
:10218000418018E0012118486830418013E00020A8
:1021900007E00122411C8900134BC9184A80411CE9
:1021A000C8B20828F5DB06E00020104908700320BB
:1021B000FFF7A8FE00BF00BF10BD0000980200207E
:1021C0005E28000825732C20495220636F64653A0D
:1021D000257820200D0A0000E80000206D6174635E
:1021E000683A25640D0A0000A8040020DC000020E5
:1021F0002801002008B5FFF743FCFEF759FC00F06A
:1022000085F800F03FF8FEF7ADFAFFF743FFFFF760
:10221000B9F9FF20F530FEF72BFF07A0006800900A
:102220000321684600F0E0F80320FFF76BFEFFF79C
:1022300097FC002008BD0000FF7DFE0070B502463F
:102240000B46FF25FF2408E01178521C694007481F
:10225000405C604005460648445C18465E1EB3B2CA
:102260000028F1D12002284370BD0000D8290008C1
:10227000D82A0008014800687047000018010020B3
:102280007047000000B58BB00120C002FEF75EFC75
:10229000142106A8FDF795FF0020099007904F2113
:1022A000684601831C200890002108A8017206A935
:1022B0001548FEF7B1FD00BF1348C068012108436F
:1022C0001149C86000BF0820009001200190032040
:1022D0000290002003900120049069460520000729
:1022E000FEF7D2FC00BF08480068012108430649F8
:1022F000086000BF0D20FFF7BDFA00210D20FFF799
:10230000C3FA0BB000BD0000002C014000B58FB037
:102310000120FEF743FD012040043149C96B014310
:102320002F4AD1631146C96B0140019100BF00BF24
:102330000122202105200007FEF723FD042009903B
:1023400002200A9003200B9000200C9001200D9099
:1023500004200E9009A905200007FEF795FC022035
:10236000099009200E9009A905200007FEF78CFCB2
:1023700000211C20FFF788FA1C20FFF77BFA4B2076
:10238000C001029000200390049005900C2006905C
:1023900000200790089002A91248FEF789FD00BFAF
:1023A000104800690121C90288430E4908610846A6
:1023B0004069082188430B49486100BF00BF0846B7
:1023C000C068202108430749C86000BF00BF084615
:1023D000C068491408430349C86000BF0FB000BD7E
:1023E000001002400044004010B5024620200523A2
:1023F0001B07986100BF00200BE0135C0C4C63606E
:1024000000BF0B4B1B6880242340002BF9D0431CDA
:10241000D8B28842F1DB00BF05480068402318406D
:102420000028F9D0202005231B07986200BF10BDAB
:10243000004400401CB51748006800280DD100BFBB
:1024400008E01549095C154A125C914200D01CBD98
:10245000411CC8B20828F4DBF9E70E4800680028E0
:1024600016D00D48FD30C1786B4601AAFD3800F04A
:1024700017F804460520FEF7FBFD68460088002893
:1024800005DD68460088C1B201A8FFF7ADFF00BFB7
:1024900000BFDCE744010020830100201001002080
:1024A000F8B5044615461F4600209A4988632078EF
:1024B00018280AD16078182807D13C219548FDF7E3
:1024C00080FE002093490860F8BD92480068030030
:1024D000FFF7FBFC07F6050E86E0F6F7F600432053
:1024E00028700120388002208A4908600120EBE72B
:1024F0002078012805D16078002802D1A078FF2833
:1025000003D000203880401EDEE70026824983A0E9
:10251000FFF7B6FE0BE0F01C215C7E48001D8155E4
:10252000F01C215C81A0FFF7ABFE701C86B2F01C92
:10253000205C002801D0802EEDDB802E02DB002005
:10254000C043C1E700217348001D815578A0FFF703
:1025500097FE301D80B2009000260CE06D48C069E7
:102560000A21484300998919615C3039401869494A
:10257000C861701C86B200988019205C302806DB88
:1025800000988019205C3A2801DA0A2EE6DB6148BF
:10259000808B81B267A0FFF773FE5E48C0697F3011
:1025A000C0095C4948620846406A012149028842E4
:1025B0000BD9182028706870022038803C215548BB
:1025C000FDF7FFFD0020C0437EE706202870432072
:1025D00068700220388003204E490860012073E7AC
:1025E0002078012806D161784A48008C401CC0B28E
:1025F00081421BD061784748006A401C814204D266
:10260000062028700120388008E0182028706870A3
:10261000022038803C213F48FDF7D3FD3D48406B08
:10262000401C3C4948630020C0434DE78221E01C28
:10263000FFF71AFC002805D01520287001203880EB
:10264000801E41E73348406B401C32494863096AA9
:10265000C9013C4A88188022E11CFFF7ADFC2D48D7
:10266000006A401C2B4908620846006A496A884291
:1026700007D30620287001203880042025490860EF
:1026800003E006202870012038800020214948639B
:10269000012019E72078042807D01E48406B401C11
:1026A0001C4948630020C0430EE7062028704320E1
:1026B00068700220388006201649086026E000E095
:1026C00021E02078012805D16078002802D1A07887
:1026D000FF280BD015202870012038800D48406B52
:1026E000401C0C4948630020C043EDE63C210948EA
:1026F000FDF767FD0620287001203880002005497D
:1027000008600220E0E60020C043DDE600BF0020B4
:10271000DAE60000440100209328000825732C20ED
:1027200046696C65206E616D653A000025630000A6
:102730000D0A00004669726D53697A653A25642076
:102740000D0A00000080000808B515480068002840
:1027500025D01348806B401C114988630846806B64
:1027600003280AD90846406B401C48631520694677
:10277000087001216846FFF737FE0948406B0528BD
:102780000CDD3C210648FDF71CFD18216846017050
:1027900041700221FFF728FEFFF7B2F800BF08BD25
:1027A00044010020000000000000000000000000C4
:1027B0000000000000000000000000000000000019
:1027C0000000000001000000020000000300000003
:1027D00004000000060000000700000008000000E0
:1027E00009000000000000000000000000000000E0
:1027F00000000000010000000200000003000000D3
:102800000400000000093D0000127A000024F400DA
:102810004086510100366E0100093D0000093D006F
:1028200000093D00081C3000000000040404000002
:10283000080000000800000800000008000204066C
:10284000080A0C000102030405065461736B335F30
:102850003130306D735F70726F6365737300696ED2
:102860006672617265645F6D6174636800081C3034
:10287000000000000404040000080000000800003C
:10288000080000000800020406080A0C0001020308
:10289000040506796D6F64656D5F7061636B6574C7
:1028A0005F616E616C7973697300081C3000000011
:1028B00000040404000008000000080000080000F4
:1028C000000800020406080A0C00010203040506C1
:1028D000540F4B0F420F380F2E0F240F190F0D0FEF
:1028E000020FF50EE90EDC0ECE0EC00EB10EA20EDA
:1028F000920E820E720E620E4F0E3C0E2A0E160EB5
:10290000020EEE0DD90DC30DAD0D960D7F0D670DA9
:102910004F0D360D1C0D020DE80CCD0CB10C950CB5
:10292000780C5B0C3E0C200C010CE20BC30BA30BD0
:10293000830B620B410B200BFF0ADD0ABB0A990ACD
:10294000760A530A300A0D0AEA09C709A309800961
:102950005D0939091509F208CF08AB088808650830
:102960003B081F08FC07DA07B707950773075207EC
:1029700030070F07EE06CE06AE068E066F064F0630
:1029800031061206F405D705BA059D0581056505D2
:1029900049052E051305F904DF04081C300000006A
:1029A0000004040400000800000008000008000003
:1029B000000800020406080A0C00010203040506D0
:1029C000666C6173685F756E6C6F636B00666C61DB
:1029D00073685F6C6F636B0000C1814001C0804110
:1029E00001C0804100C1814001C0804100C18140DF
:1029F00000C1814001C0804101C0804100C18140CF
:102A000000C1814001C0804100C1814001C08041BE
:102A100001C0804100C1814001C0804100C18140AE
:102A200000C1814001C0804100C1814001C080419E
:102A300001C0804100C1814000C1814001C080418E
:102A400001C0804100C1814001C0804100C181407E
:102A500000C1814001C0804101C0804100C181406E
:102A600000C1814001C0804100C1814001C080415E
:102A700001C0804100C1814000C1814001C080414E
:102A800001C0804100C1814001C0804100C181403E
:102A900000C1814001C0804100C1814001C080412E
:102AA00001C0804100C1814001C0804100C181401E
:102AB00000C1814001C0804101C0804100C181400E
:102AC00000C1814001C0804100C1814001C08041FE
:102AD00001C0804100C1814000C0C101C30302C2E6
:102AE000C60607C705C5C404CC0C0DCD0FCFCE0E4E
:102AF0000ACACB0BC90908C8D81819D91BDBDA1ABE
:102B00001EDEDF1FDD1D1CDC14D4D515D71716D62D
:102B1000D21213D311D1D010F03031F133F3F2329D
:102B200036F6F737F53534F43CFCFD3DFF3F3EFE0D
:102B3000FA3A3BFB39F9F83828E8E929EB2B2AEA7D
:102B4000EE2E2FEF2DEDEC2CE42425E527E7E626ED
:102B500022E2E323E12120E0A06061A163A3A2625D
:102B600066A6A767A56564A46CACAD6DAF6F6EAECD
:102B7000AA6A6BAB69A9A86878B8B979BB7B7ABA3D
:102B8000BE7E7FBF7DBDBC7CB47475B577B7B676AD
:102B900072B2B373B17170B050909151935352921D
:102BA00096565797559594549C5C5D9D5F9F9E5E8D
:102BB0005A9A9B5B99595898884849894B8B8A4AFD
:102BC0004E8E8F4F8D4D4C8C44848545874746866D
:102BD0008242438341818040F82B0008000000209E
:102BE00044010000CC060008402C000844010020ED
:102BF00014080000F61E000801C20326127A2F38BE
:102C0000C700FFA25D00FF629D00FFE21D2CFF22B6
:102C1000DD00FF02FD00FFC23D2CFFE01F00FFA80A
:102C20005700FF906FEAFFFF0A50A55A3826FE7240
:102C30001055A8040020421F5524050020420C0016
:04000005080000C12E
:00000001FF
